:100000000C9435010C9466010C9466010C94660105
:100010000C9466010C9466010C9466010C946601C4
:100020000C9466010C9466010C9466010C946601B4
:100030000C9466010C9466010C9466010C946601A4
:100040000C9466010C9466010C9466010C94660194
:100050000C9466010C9466010C9466010C941504D2
:100060000C9466010C9489040C945F040C94660152
:100070000C9466010C9466010C9466010C94660164
:100080000C9466010C9466010C9466010C94660154
:100090000C9466010C9466010C9466010C94660144
:1000A0000C9466010C9466010C9466010C94660134
:1000B0000C9466010C9466010C9466010C94660124
:1000C0000C9466010C9466010C9466010C94660114
:1000D0000C9466010C9466010C9466010C94660104
:1000E0000C9466010C94A5010C949B010C94BD0129
:1000F0000C94B2020C94C1020C9498010C94C101AE
:100100000C9468030C948C010C94D5020C94E302BB
:100110000C9485020C941B030C94AF010C94C60143
:100120000C94B3010C94AB010C94B7060C94B90178
:100130000C94A1010C94C7010C94CB010C94940174
:100140000C9490010C9486010000200023002600EE
:1001500029002C002F0032000001000003010601DD
:10016000090100002100240027002A002D00300092
:10017000330001010000040107010A010000220010
:10018000250028002B002E00310034000201000061
:10019000050108010B010505050507050808080804
:1001A000020202020A0A080804040404010101010F
:1001B000010101010303030303030303040707070A
:1001C0000C0C0C0C0C0C0C0C0202020206060606AF
:1001D000060606060B0B0B0B0B0B0B0B010210207C
:1001E000200808102040102040800201020108046D
:1001F0000201010204081020408080402010080401
:100200000201800402018040201008040201080459
:10021000020101020408102040800102040810209D
:10022000408000000A0B02090C0D0E0807030401B0
:1002300000000000000000000000000000000000BE
:10024000000000000000000000000000000012118B
:10025000100000000000000000000000000000008E
:100260000000000000000000B70611241FBECFEF01
:10027000D1E2DEBFCDBF00E00CBF12E0A0E0B2E0F3
:10028000ECEDFDE000E00BBF02C007900D92A63E32
:10029000B107D9F723E0A6EEB2E001C01D92AE3956
:1002A000B207E1F711E0C5E3D1E000E006C0219715
:1002B0000109802FFE010E94E406C433D10780E0CB
:1002C0000807A9F70E94EC040C94EC060C940000BB
:1002D0008150823108F05AC0E82FF0E08827EC58AE
:1002E000FE4F8F4F0C94E4069401980186018C0117
:1002F0009001C6019B01A101A501AB01AF01B301B2
:10030000B901BD01C601C101C701CB0180918000C7
:100310008F77809380000895809180008F7DF9CF42
:1003200080918000877FF5CF84B58F7784BD089555
:1003300084B58F7DFBCF8091B0008F778093B00024
:1003400008958091B0008F7DF9CF809190008F77D4
:10035000809390000895809190008F7DF9CF8091D7
:100360009000877FF5CF8091A0008F778093A000C9
:1003700008958091A0008F7DF9CF8091A000877FA4
:10038000F5CF809120018F7780932001089580918F
:1003900020018F7DF9CF80912001877FF5CF1F93BA
:1003A000CF93DF93282F30E0F901EE5DFD4F84916C
:1003B000F901E452FE4FD491F901EA56FE4FC4917F
:1003C000CC23A9F0162F81110E946801EC2FF0E0D8
:1003D000EE0FFF1FE458FE4FA591B4918FB7F8942C
:1003E000EC91111108C0D095DE23DC938FBFDF9113
:1003F000CF911F910895DE2BF8CFCF93DF9390E03C
:10040000FC01E452FE4F24918A569E4FFC018491D8
:100410008823D1F090E0880F991FFC01EE59FE4F20
:10042000A591B491FC01E458FE4FC591D49162307E
:1004300071F49FB7F8943C91822F809583238C931D
:10044000E8812E2B28839FBFDF91CF9108958FB72E
:10045000F894EC912E2B2C938FBFF6CF3FB7F894E6
:100460008091FD029091FE02A091FF02B0910003E5
:1004700026B5A89B05C02F3F19F00196A11DB11DFF
:100480003FBFBA2FA92F982F8827BC01CD01620F3B
:10049000711D811D911D42E0660F771F881F991FF6
:1004A0004A95D1F708958F929F92AF92BF92CF92C3
:1004B000DF92EF92FF924B015C010E942E026B01D2
:1004C0007C010E942E026C197D098E099F09683EED
:1004D000734081059105A8F321E0821A9108A108D3
:1004E000B10888EEC80E83E0D81EE11CF11C81140F
:1004F0009104A104B10429F7FF90EF90DF90CF9011
:10050000BF90AF909F908F900895AF92BF92CF927F
:10051000DF92EF92FF920F931F93CF93DF936C01C3
:100520007B018B01040F151FEB015E01AE18BF08A4
:10053000C017D10759F06991D601ED91FC91019056
:10054000F081E02DC6011995892B79F7C501DF915E
:10055000CF911F910F91FF90EF90DF90CF90BF90C0
:10056000AF900895FC01538D448D252F30E0842FEA
:1005700090E0821B930B541710F0CF9608950197CB
:100580000895FC01918D828D981761F0A28DAE0FB8
:10059000BF2FB11D5D968C91928D9F5F9F73928F3F
:1005A00090E008958FEF9FEF0895FC01918D828D6B
:1005B000981731F0828DE80FF11D858D90E0089538
:1005C0008FEF9FEF0895FC01918D228D892F90E090
:1005D000805C9F4F821B91098F739927089581E05A
:1005E00093E00E94E30221E0892B09F420E0822FAE
:1005F0000895FC01A48DA80FB92FB11DA35ABF4FB8
:100600002C91848D90E001968F739927848FA68911
:10061000B7892C93A089B1898C91837080648C9365
:10062000938D848D981306C00288F389E02D808114
:100630008F7D80830895EF92FF920F931F93CF9346
:10064000DF93EC0181E0888F9B8D8C8D98131AC00D
:10065000E889F989808185FF15C09FB7F894EE89F4
:10066000FF896083E889F989808183708064808351
:100670009FBF81E090E0DF91CF911F910F91FF909C
:10068000EF900895F62E0B8D10E00F5F1F4F0F7344
:100690001127E02E8C8D8E110CC00FB607FCFACFFF
:1006A000E889F989808185FFF5CFCE010E94F902A2
:1006B000F1CFEB8DEC0FFD2FF11DE35AFF4FF082D0
:1006C0009FB7F8940B8FEA89FB8980818062CFCF36
:1006D000CF93DF93EC01888D8823B9F0AA89BB8979
:1006E000E889F9898C9185FD03C0808186FD0DC064
:1006F0000FB607FCF7CF8C9185FFF2CF808185FF85
:10070000EDCFCE010E94F902E9CFDF91CF9108959C
:1007100080E090E0892B29F00E94EF0281110E9475
:10072000000080E090E0892B49F080E090E0892B88
:1007300029F00E94000081110E94000080E090E0FA
:10074000892B49F080E090E0892B29F00E9400007D
:1007500081110E94000080E090E0892B49F080E048
:1007600090E0892B29F00E94000081110C94000078
:100770000895FC0101900020E9F73197AF01481B73
:10078000590BBC0181E093E00C948502CF93DF9379
:100790000E94B903EC018BE592E00E94B9038C0F33
:1007A0009D1FDF91CF9108958EE592E00E94C603D0
:1007B00089E692E00E94C60303E010E00E94BF04B5
:1007C00064EF71E080E090E00E945302C7E3D2E062
:1007D00085E2C82E82E0D82E93E1E92E92E0F92E30
:1007E0008881229661E00E94CF01F6018081F2E0CB
:1007F000CF0ED11C61E00E94CF01F7018081F2E0B1
:10080000EF0EF11C61E00E94CF0182E0C934D807ED
:1008100039F764EF71E080E090E00E9453020150EC
:10082000110961F60E94BF04FFCF1F920F920FB60D
:100830000F9211242F933F938F939F93AF93BF9366
:100840008091F9029091FA02A091FB02B091FC0212
:100850003091F80223E0230F2D3758F50196A11DA2
:10086000B11D2093F8028093F9029093FA02A093AD
:10087000FB02B093FC028091FD029091FE02A091D8
:10088000FF02B09100030196A11DB11D8093FD02EE
:100890009093FE02A093FF02B0930003BF91AF912B
:1008A0009F918F913F912F910F900FBE0F901F90AE
:1008B000189526E8230F0296A11DB11DD2CF1F92D5
:1008C0000F920FB60F9211240BB60F922F933F93F6
:1008D0004F935F936F937F938F939F93AF93BF9348
:1008E000EF93FF9381E093E00E94F902FF91EF9173
:1008F000BF91AF919F918F917F916F915F914F9138
:100900003F912F910F900BBE0F900FBE0F901F9035
:1009100018951F920F920FB60F9211240BB60F92DB
:100920002F938F939F93EF93FF93E0911103F09197
:1009300012038081E0911703F091180382FD1DC01E
:10094000908180911A038F5F8F7320911B03821710
:1009500041F0E0911A03F0E0EF5FFC4F958F809338
:100960001A03FF91EF919F918F912F910F900BBEE2
:100970000F900FBE0F901F9018958081F2CFEF92CD
:10098000FF920F931F93CF93DF93C7E3D2E085E2EB
:10099000E82E82E0F82E03E112E08881229660E0E2
:1009A0000E94CF01F7018081F2E0EF0EF11C60E0C0
:1009B0000E94CF01F80180810E5F1F4F60E00E940E
:1009C000CF01F2E0C934DF0741F7DF91CF911F91EA
:1009D0000F91FF90EF900895789484B5826084BD64
:1009E00084B5816084BD85B5826085BD85B5816033
:1009F00085BD80916E00816080936E0010928100B1
:100A0000809181008260809381008091810081606B
:100A1000809381008091800081608093800080912C
:100A2000B10084608093B1008091B00081608093B8
:100A3000B00080919100826080939100809191003C
:100A400081608093910080919000816080939000FC
:100A50008091A10082608093A1008091A1008160BB
:100A60008093A1008091A00081608093A00080917C
:100A70002101826080932101809121018160809316
:100A800021018091200181608093200180917A0072
:100A9000846080937A0080917A00826080937A00EB
:100AA00080917A00816080937A0080917A008068DA
:100AB00080937A001092C100E0911103F09112032B
:100AC00082E08083E0910D03F0910E031082E091AB
:100AD0000F03F09110038FEC808310921903E091C3
:100AE0001503F091160386E08083E0911303F091E3
:100AF0001403808180618083E0911303F0911403DB
:100B0000808188608083E0911303F09114038081D9
:100B100080688083E0911303F091140380818F7DBE
:100B20008083C7E3D2E065E2E62E62E0F62E03E1C1
:100B300012E08881229661E00E94FD01D7018C912C
:100B4000B2E0EB0EF11C61E00E94FD01F801808132
:100B50000E5F1F4F61E00E94FD01F2E0C934DF0724
:100B600041F7C9E4D2E08881229662E00E94FD014B
:100B700082E0CB35D807B9F789E992E00E94C60335
:100B800085EA92E00E94C603AA24A394B12C48EF00
:100B9000642E42E0742E5CEE852E52E0952E96EE89
:100BA000E92E92E0F92E870129E4C22E22E0D22E0E
:100BB000D0E0C0E0D6012D913D916D013327F901C0
:100BC000EE5DFD4F8491F901E452FE4F5490F9011E
:100BD000EA56FE4F4490411074C0F8018081918123
:100BE000019709F07EC00E5F1F4F2296C231D105DA
:100BF00009F7E6EEF2E080819181019749F4828164
:100C00009381019729F484819581019709F440C06B
:100C100036966E167F0679F7A6EEB2E08D919D911D
:100C2000019761F414968D919C911597019731F479
:100C30001A968D919C911B97019751F18A169B06EC
:100C400069F78091E6029091E702019761F4809143
:100C5000EE029091EF02019731F48091F6029091AB
:100C6000F7020197A9F08091EA029091EB020197B7
:100C700009F068C08091EE029091EF02019709F0AF
:100C800061C08091F2029091F302019709F05AC07D
:100C900080EC92E00E94B90380910002883509F44B
:100CA00060C085E992E00E94B90381ED92E00E9464
:100CB000C60368E873E180E090E00E9453020E945E
:100CC000D40381110E946801E42DF0E0EE0FFF1FB4
:100CD000E85BFE4FA591B491EC915E2209F47DCFC3
:100CE00082CF8091000261E0FE018835F1F4E95C79
:100CF000FD4F80810E94CF01D801AD92BC9280EC63
:100D000092E00E94B90380910002883539F185E9AB
:100D100092E00E94B90388EC92E00E94C6038091A1
:100D20000002883529F48FE404C0EB5DFD4FE1CF6C
:100D300088E58093000268EC70E080E090E00E941B
:100D4000530251CFD7018D919D917D01892B61F087
:100D5000AE17BF07B9F788ED92E0A9CF87E992E017
:100D6000D8CF87E992E09FCF0E94880318CFE1E0B7
:100D7000F3E01382128288EE93E0A0E0B0E0848377
:100D80009583A683B78385E092E09183808385EC89
:100D900090E09587848784EC90E09787868780EC45
:100DA00090E0918B808B81EC90E0938B828B82EC36
:100DB00090E0958B848B86EC90E0978B868B118EE0
:100DC000128E138E148E0895EE0FFF1F881F8BBF97
:0C0DD0000790F691E02D1994F894FFCFE5
:100DDC0058000000001B038502B2026803E302C145
:100DEC0002D5020B000800050002001000130016CB
:100DFC000019001C000C000900060003000F001273
:100E0C0000150018001B000D000A00070004000E5E
:100E1C00001100140017001A0021002400270022E2
:100E2C0000250028002300260029000D0A00476138
:100E3C006D65204F76657221005072657373207456
:100E4C00686520726573657420627574746F6E20AA
:100E5C00746F2073746172742061206E65772067E3
:100E6C00616D652E003200310047616D6520537451
:100E7C006172742100506C617965722031202852A6
:100E8C0065642920676F65732066697273742E0020
:100E9C00506C6179657220002773207475726E2E08
:100EAC00002077696E7321004974277320612064D8
:060EBC00726177210000C5
:00000001FF
