:100000000C9435010C9466010C9466010C94660105
:100010000C9466010C9466010C9466010C946601C4
:100020000C9466010C9466010C9466010C946601B4
:100030000C9466010C9466010C9466010C946601A4
:100040000C9466010C9466010C9466010C94660194
:100050000C9466010C9466010C9466010C943E04A9
:100060000C9466010C94B2040C9488040C94660100
:100070000C9466010C9466010C9466010C94660164
:100080000C9466010C9466010C9466010C94660154
:100090000C9466010C9466010C9466010C94660144
:1000A0000C9466010C9466010C9466010C94660134
:1000B0000C9466010C9466010C9466010C94660124
:1000C0000C9466010C9466010C9466010C94660114
:1000D0000C9466010C9466010C9466010C94660104
:1000E0000C9466010C940C030C94A5010C949B01D8
:1000F0000C94AE020C94EA020C94BD010C94FE0226
:100100000C9498010C94C1010C94DB020C948C01AA
:100110000C94B4070C94AF010C94C6010C94B30179
:100120000C94AB010C9491030C94B9010C94A101B3
:100130000C94C7010C9444030C94CB010C949401CF
:100140000C9490010C9486010000210024002700EB
:100150002A002D00300033000101000004010701D6
:100160000A0100002200250028002B002E0031008B
:10017000340002010000050108010B01000020000D
:100180002300260029002C002F003200000100006F
:10019000030106010901050505050705080808080A
:1001A000020202020A0A080804040404010101010F
:1001B000010101010303030303030303040707070A
:1001C0000C0C0C0C0C0C0C0C0202020206060606AF
:1001D000060606060B0B0B0B0B0B0B0B010210207C
:1001E000200808102040102040800201020108046D
:1001F0000201010204081020408080402010080401
:100200000201800402018040201008040201080459
:10021000020101020408102040800102040810209D
:10022000408000000A0B02090C0D0E0807030401B0
:1002300000000000000000000000000000000000BE
:10024000000000000000000000000000000012118B
:10025000100000000000000000000000000000008E
:100260000000000000000000B40711241FBECFEF03
:10027000D1E2DEBFCDBF00E00CBF12E0A0E0B2E0F3
:10028000E6EDFFE000E00BBF02C007900D92A43F37
:10029000B107D9F723E0A4EFB2E001C01D92AC3A58
:1002A000B207E1F711E0C5E3D1E000E006C0219715
:1002B0000109802FFE010E94E107C433D10780E0CD
:1002C0000807A9F70E9415050C94E9070C94000093
:1002D0008150823108F05AC0E82FF0E08827EC58AE
:1002E000FE4F8F4F0C94E1079401980186018C0119
:1002F0009001C6019B01A101A501AB01AF01B301B2
:10030000B901BD01C601C101C701CB0180918000C7
:100310008F77809380000895809180008F7DF9CF42
:1003200080918000877FF5CF84B58F7784BD089555
:1003300084B58F7DFBCF8091B0008F778093B00024
:1003400008958091B0008F7DF9CF809190008F77D4
:10035000809390000895809190008F7DF9CF8091D7
:100360009000877FF5CF8091A0008F778093A000C9
:1003700008958091A0008F7DF9CF8091A000877FA4
:10038000F5CF809120018F7780932001089580918F
:1003900020018F7DF9CF80912001877FF5CFCF930A
:1003A000DF93282F30E0F901EE5DFD4F8491F901D4
:1003B000E452FE4FD491F901EA56FE4FC491CC238A
:1003C000A1F081110E946801EC2FF0E0EE0FFF1FF9
:1003D000E458FE4FA591B491EC91ED2381E090E0BB
:1003E00009F480E0DF91CF91089580E090E0FACFAA
:1003F0001F93CF93DF93282F30E0F901EE5DFD4F7F
:100400008491F901E452FE4FD491F901EA56FE4F6E
:10041000C491CC23A9F0162F81110E946801EC2F02
:10042000F0E0EE0FFF1FEE59FE4FA591B4918FB78C
:10043000F894EC91111108C0D095DE23DC938FBFA6
:10044000DF91CF911F910895DE2BF8CFCF93DF93EB
:1004500090E0FC01E452FE4F24918A569E4FFC012D
:1004600084918823D1F090E0880F991FFC01E85B0C
:10047000FE4FA591B491FC01EE59FE4FC591D49168
:10048000623071F49FB7F8943C91822F809583235A
:100490008C93E8812E2B28839FBFDF91CF91089505
:1004A0008FB7F894EC912E2B2C938FBFF6CF3FB7DC
:1004B000F89480910B0390910C03A0910D03B091DF
:1004C0000E0326B5A89B05C02F3F19F00196A11D6C
:1004D000B11D3FBFBA2FA92F982F8827BC01CD018E
:1004E000620F711D811D911D42E0660F771F881FED
:1004F000991F4A95D1F708958F929F92AF92BF921C
:10050000CF92DF92EF92FF924B015C010E94570263
:100510006B017C010E9457026C197D098E099F09AD
:10052000683E734081059105A8F321E0821A910885
:10053000A108B10888EEC80E83E0D81EE11CF11CAA
:1005400081149104A104B10429F7FF90EF90DF908A
:10055000CF90BF90AF909F908F900895AF92BF9231
:10056000CF92DF92EF92FF920F931F93CF93DF937F
:100570006C017B018B01040F151FEB015E01AE18AE
:10058000BF08C017D10759F06991D601ED91FC91D0
:100590000190F081E02DC6011995892B79F7C501ED
:1005A000DF91CF911F910F91FF90EF90DF90CF904F
:1005B000BF90AF900895FC01538D448D252F30E0FE
:1005C000842F90E0821B930B541710F0CF96089560
:1005D00001970895FC01918D828D981761F0A28D8D
:1005E000AE0FBF2FB11D5D968C91928D9F5F9F7353
:1005F000928F90E008958FEF9FEF0895FC01918D09
:10060000828D981731F0828DE80FF11D858D90E075
:1006100008958FEF9FEF0895FC01918D228D892F12
:1006200090E0805C9F4F821B91098F7399270895FA
:100630008FE093E00E940C0321E0892B09F420E075
:10064000822F0895FC01A48DA80FB92FB11DA35AC4
:10065000BF4F2C91848D90E001968F739927848FE2
:10066000A689B7892C93A089B1898C918370806405
:100670008C93938D848D981306C00288F389E02DA6
:1006800080818F7D80830895EF92FF920F931F9357
:10069000CF93DF93EC0181E0888F9B8D8C8D981335
:1006A0001AC0E889F989808185FF15C09FB7F89441
:1006B000EE89FF896083E889F9898081837080648D
:1006C00080839FBF81E090E0DF91CF911F910F91D8
:1006D000FF90EF900895F62E0B8D10E00F5F1F4FE7
:1006E0000F731127E02E8C8D8E110CC00FB607FCF6
:1006F000FACFE889F989808185FFF5CFCE010E9484
:100700002203F1CFEB8DEC0FFD2FF11DE35AFF4FCC
:10071000F0829FB7F8940B8FEA89FB898081806211
:10072000CFCFCF93DF93EC01888D8823B9F0AA89CE
:10073000BB89E889F9898C9185FD03C0808186FD9C
:100740000DC00FB607FCF7CF8C9185FFF2CF8081EB
:1007500085FFEDCFCE010E942203E9CFDF91CF913B
:10076000089580E090E0892B29F00E941803811100
:100770000E94000080E090E0892B49F080E090E04A
:10078000892B29F00E94000081110E94000080E066
:1007900090E0892B49F080E090E0892B29F00E94BD
:1007A000000081110E94000080E090E0892B49F058
:1007B00080E090E0892B29F00E94000081110C94C8
:1007C00000000895FC0101900020E9F73197AF0186
:1007D000481B590BBC018FE093E00C94AE02CF9301
:1007E000DF930E94E203EC018BE592E00E94E203BA
:1007F0008C0F9D1FDF91CF9108958EE592E00E94AE
:10080000EF0389E692E00E94EF0303E010E00E940C
:10081000E80464EF71E080E090E00E947C02C7E3AE
:10082000D2E085E2C82E82E0D82E93E1E92E92E054
:10083000F92E8881229661E00E94F801F6018081FC
:10084000F2E0CF0ED11C61E00E94F801F701808137
:10085000F2E0EF0EF11C61E00E94F80182E0C93481
:10086000D80739F764EF71E080E090E00E947C02E5
:100870000150110961F60E94E804FFCF1F920F9208
:100880000FB60F9211242F933F938F939F93AF93A3
:10089000BF938091070390910803A0910903B09141
:1008A0000A033091060323E0230F2D3758F50196F4
:1008B000A11DB11D209306038093070390930803A5
:1008C000A0930903B0930A0380910B0390910C034A
:1008D000A0910D03B0910E030196A11DB11D80934F
:1008E0000B0390930C03A0930D03B0930E03BF91E1
:1008F000AF919F918F913F912F910F900FBE0F90CD
:100900001F90189526E8230F0296A11DB11DD2CF86
:100910001F920F920FB60F9211240BB60F922F93C6
:100920003F934F935F936F937F938F939F93AF9377
:10093000BF93EF93FF938FE093E00E942203FF9118
:10094000EF91BF91AF919F918F917F916F915F9147
:100950004F913F912F910F900BBE0F900FBE0F90B4
:100960001F9018951F920F920FB60F9211240BB67D
:100970000F922F938F939F93EF93FF93E0911F0319
:10098000F09120038081E0912503F091260382FD00
:100990001DC09081809128038F5F8F732091290360
:1009A000821741F0E0912803F0E0E15FFC4F958F62
:1009B00080932803FF91EF919F918F912F910F903A
:1009C0000BBE0F900FBE0F901F9018958081F2CF35
:1009D000EF92FF920F931F93CF93DF93C7E3D2E081
:1009E00085E2E82E82E0F82E03E112E0888122966B
:1009F00060E00E94F801F7018081F2E0EF0EF11C47
:100A000060E00E94F801F80180810E5F1F4F60E0F6
:100A10000E94F801F2E0C934DF0741F7DF91CF917E
:100A20001F910F91FF90EF900895789484B58260A4
:100A300084BD84B5816084BD85B5826085BD85B582
:100A4000816085BD80916E00816080936E00109200
:100A5000810080918100826080938100809181007B
:100A6000816080938100809180008160809380000C
:100A70008091B10084608093B1008091B00081606A
:100A80008093B0008091910082608093910080916A
:100A900091008160809391008091900081608093AB
:100AA00090008091A10082608093A1008091A100BC
:100AB00081608093A1008091A00081608093A0005C
:100AC00080912101826080932101809121018160C8
:100AD0008093210180912001816080932001809189
:100AE0007A00846080937A0080917A00826080939B
:100AF0007A0080917A00816080937A0080917A00F8
:100B0000806880937A001092C100E0911F03F091F9
:100B1000200382E08083E0911B03F0911C0310828C
:100B2000E0911D03F0911E038FEC80831092270348
:100B3000E0912303F091240386E08083E091210378
:100B4000F0912203808180618083E0912103F09104
:100B50002203808188608083E0912103F091220349
:100B6000808180688083E0912103F091220380815D
:100B70008F7D8083C7E3D2E025E2E22E22E0F22ED1
:100B800003E112E08881229661E00E942602F701CB
:100B90008081F2E0EF0EF11C61E00E942602F80174
:100BA00080810E5F1F4F61E00E942602F2E0C9348F
:100BB000DF0741F70BE512E0C9E4D2E08881229615
:100BC00062E00E9426020C171D07C1F789E992E036
:100BD0000E94EF0385EA92E00E94EF0301E010E03B
:100BE0009AEFE92E92E0F92E89E4C82E82E0D82E01
:100BF000D0E0C0E0F6018081F2E0CF0ED11C0E946F
:100C0000CF01892BD1F5CE018C509D4F5C01FC01A9
:100C100080819181019789F18091000261E0FE015C
:100C20008835F9F4E95CFD4F80810E94F801F501F7
:100C30001183008380EC92E00E94E2038091000225
:100C4000883509F48EC185E992E00E94E2038EEDB9
:100C500092E00E94EF0380910002883529F48FE42E
:100C600004C0EB5DFD4FE0CF88E58093000268ECA7
:100C700070E080E090E00E947C022296C231D105B3
:100C800009F0B8CFC4EFD2E0FE01808191810197D5
:100C900049F482819381019729F484819581019798
:100CA00009F441C0369683E0E630F80771F7A4EF07
:100CB000B2E08D919D91019761F414968D919C9174
:100CC0001597019731F41A968D919C911B97019776
:100CD00051F1EA16FB0669F78091F4029091F50252
:100CE000019761F48091FC029091FD02019731F42B
:100CF00080910403909105030197A9F08091F80277
:100D00009091F902019709F022C18091FC02909123
:100D1000FD02019709F01BC180910003909101032E
:100D2000019709F014C180E00E94CF01019709F4F6
:100D3000E7C08EE00E94CF01019759F480E00E9445
:100D4000CF01019731F480E00E94CF01019709F4AF
:100D5000E3C080E00E94CF01019759F480E00E9437
:100D6000CF01019731F480E00E94CF01019709F48F
:100D7000D3C080E00E94CF01019759F48EE00E9419
:100D8000CF01019731F480E00E94CF01019709F46F
:100D9000C3C080E00E94CF01019759F480E00E9417
:100DA000CF01019731F480E00E94CF01019709F44F
:100DB000B3C087E10E94CF01019759F480E00E94FF
:100DC000CF01019731F480E00E94CF01019709F42F
:100DD000A3C080E00E94CF01019759F480E00E94F7
:100DE000CF01019731F480E00E94CF01019709F40F
:100DF00093C087E10E94CF01019759F480E00E94DF
:100E0000CF01019731F480E00E94CF01019709F4EE
:100E100083C080E00E94CF01019709F489C083E07C
:100E20000E94CF01019759F480E00E94CF01019701
:100E300031F480E00E94CF01019709F485C080E081
:100E40000E94CF01019759F480E00E94CF010197E1
:100E500031F480E00E94CF01019709F475C080E071
:100E60000E94CF01019759F483E00E94CF010197BE
:100E700031F480E00E94CF01019709F465C080E061
:100E80000E94CF01019759F480E00E94CF010197A1
:100E900031F480E00E94CF01019709F455C085E14B
:100EA0000E94CF01019759F480E00E94CF01019781
:100EB00031F480E00E94CF01019709F445C080E041
:100EC0000E94CF01019751F480E00E94CF01019769
:100ED00029F480E00E94CF010197B1F188E10E94DE
:100EE000CF01019751F480E00E94CF01019729F4CE
:100EF00080E00E94CF01019739F10E94B10374CEC6
:100F000080E00E94CF01019709F013CF87E10E9492
:100F1000CF01019709F00DCF88EC92E00E94EF031A
:100F200068E873E180E090E00E947C020E94FD038B
:100F300080E00E94CF01019709F071CF85E10E9406
:100F4000CF01019709F06BCF82ED92E0E7CF899155
:100F50009991892B91F2EC17FD07C9F787EE92E082
:100F6000DDCF87E992E071CEEFE0F3E013821282E9
:100F700088EE93E0A0E0B0E084839583A683B783F6
:100F800085E092E09183808385EC90E0958784876B
:100F900084EC90E09787868780EC90E0918B808B43
:100FA00081EC90E0938B828B82EC90E0958B848B2C
:100FB00086EC90E0978B868B118E128E138E148E9A
:100FC0000895EE0FFF1F881F8BBF0790F691E02D4D
:060FD0001994F894FFCF14
:100FD60058000000004403AE02DB0291030C03EA52
:100FE60002FE020B000800050002001000130016A6
:100FF6000019001C000C000900060003000F001277
:1010060000150018001B000D000A00070004000E62
:10101600001100140017001A0021002400270022E6
:1010260000250028002300260029000D0A0047613C
:101036006D65204F7665722100507265737320745A
:10104600686520726573657420627574746F6E20AE
:10105600746F2073746172742061206E65772067E7
:10106600616D652E003200310047616D6520537455
:101076006172742100506C617965722031202852AA
:1010860065642920676F65732066697273742E0024
:10109600506C6179657220005245442057494E5381
:1010A6002100475245454E2057494E53210027738C
:1010B600207475726E2E0049742773206120647245
:0410C600617721002D
:00000001FF
